{
  "_format": "hh-sol-artifact-1",
  "contractName": "Lock",
  "sourceName": "contracts/Lock.sol",
  "abi": [
    {
      "inputs": [],
      "stateMutability": "nonpayable",
      "type": "constructor"
    },
    {
      "anonymous": false,
      "inputs": [
        {
          "indexed": true,
          "internalType": "bytes32",
          "name": "ehrId",
          "type": "bytes32"
        },
        {
          "indexed": true,
          "internalType": "address",
          "name": "patient",
          "type": "address"
        },
        {
          "indexed": false,
          "internalType": "string",
          "name": "ipfsHash",
          "type": "string"
        }
      ],
      "name": "EHRIssued",
      "type": "event"
    },
    {
      "anonymous": false,
      "inputs": [
        {
          "indexed": true,
          "internalType": "address",
          "name": "patient",
          "type": "address"
        },
        {
          "indexed": true,
          "internalType": "address",
          "name": "doctor",
          "type": "address"
        }
      ],
      "name": "FullAccessGranted",
      "type": "event"
    },
    {
      "anonymous": false,
      "inputs": [
        {
          "indexed": true,
          "internalType": "address",
          "name": "patient",
          "type": "address"
        },
        {
          "indexed": true,
          "internalType": "address",
          "name": "doctor",
          "type": "address"
        }
      ],
      "name": "FullAccessRevoked",
      "type": "event"
    },
    {
      "anonymous": false,
      "inputs": [
        {
          "indexed": true,
          "internalType": "address",
          "name": "patient",
          "type": "address"
        },
        {
          "indexed": true,
          "internalType": "address",
          "name": "oldDoctor",
          "type": "address"
        },
        {
          "indexed": true,
          "internalType": "address",
          "name": "newDoctor",
          "type": "address"
        }
      ],
      "name": "FullAccessTransferred",
      "type": "event"
    },
    {
      "anonymous": false,
      "inputs": [
        {
          "indexed": true,
          "internalType": "address",
          "name": "user",
          "type": "address"
        }
      ],
      "name": "UserRoleReset",
      "type": "event"
    },
    {
      "inputs": [
        {
          "internalType": "bytes32",
          "name": "",
          "type": "bytes32"
        }
      ],
      "name": "ehrRecords",
      "outputs": [
        {
          "internalType": "address",
          "name": "patient",
          "type": "address"
        },
        {
          "internalType": "string",
          "name": "ipfsHash",
          "type": "string"
        },
        {
          "internalType": "uint256",
          "name": "timestamp",
          "type": "uint256"
        }
      ],
      "stateMutability": "view",
      "type": "function"
    },
    {
      "inputs": [
        {
          "internalType": "address",
          "name": "_doctor",
          "type": "address"
        }
      ],
      "name": "grantFullAccess",
      "outputs": [],
      "stateMutability": "nonpayable",
      "type": "function"
    },
    {
      "inputs": [
        {
          "internalType": "address",
          "name": "patient",
          "type": "address"
        },
        {
          "internalType": "address",
          "name": "doctor",
          "type": "address"
        }
      ],
      "name": "hasFullAccess",
      "outputs": [
        {
          "internalType": "bool",
          "name": "",
          "type": "bool"
        }
      ],
      "stateMutability": "view",
      "type": "function"
    },
    {
      "inputs": [
        {
          "internalType": "string",
          "name": "_ipfsHash",
          "type": "string"
        }
      ],
      "name": "issueEHR",
      "outputs": [
        {
          "internalType": "bytes32",
          "name": "",
          "type": "bytes32"
        }
      ],
      "stateMutability": "nonpayable",
      "type": "function"
    },
    {
      "inputs": [
        {
          "internalType": "enum Lock.Role",
          "name": "role",
          "type": "uint8"
        }
      ],
      "name": "registerUser",
      "outputs": [],
      "stateMutability": "nonpayable",
      "type": "function"
    },
    {
      "inputs": [],
      "name": "resetUserRole",
      "outputs": [],
      "stateMutability": "nonpayable",
      "type": "function"
    },
    {
      "inputs": [
        {
          "internalType": "address",
          "name": "_doctor",
          "type": "address"
        }
      ],
      "name": "revokeFullAccess",
      "outputs": [],
      "stateMutability": "nonpayable",
      "type": "function"
    },
    {
      "inputs": [
        {
          "internalType": "address",
          "name": "_patient",
          "type": "address"
        },
        {
          "internalType": "address",
          "name": "_newDoctor",
          "type": "address"
        }
      ],
      "name": "transferFullAccess",
      "outputs": [],
      "stateMutability": "nonpayable",
      "type": "function"
    },
    {
      "inputs": [
        {
          "internalType": "address",
          "name": "",
          "type": "address"
        }
      ],
      "name": "userRoles",
      "outputs": [
        {
          "internalType": "enum Lock.Role",
          "name": "",
          "type": "uint8"
        }
      ],
      "stateMutability": "view",
      "type": "function"
    },
    {
      "inputs": [
        {
          "internalType": "bytes32",
          "name": "_ehrId",
          "type": "bytes32"
        }
      ],
      "name": "viewEHR",
      "outputs": [
        {
          "internalType": "string",
          "name": "",
          "type": "string"
        }
      ],
      "stateMutability": "view",
      "type": "function"
    },
    {
      "inputs": [
        {
          "internalType": "address",
          "name": "_patient",
          "type": "address"
        }
      ],
      "name": "viewPatientHistory",
      "outputs": [
        {
          "internalType": "bytes32[]",
          "name": "ehrIds",
          "type": "bytes32[]"
        },
        {
          "internalType": "uint256[]",
          "name": "timestamps",
          "type": "uint256[]"
        },
        {
          "internalType": "string[]",
          "name": "ipfsHashes",
          "type": "string[]"
        }
      ],
      "stateMutability": "view",
      "type": "function"
    }
  ],
  "bytecode": "0x6080604052348015600f57600080fd5b506000600481905550612c16806100276000396000f3fe608060405234801561001057600080fd5b50600436106100a95760003560e01c806374d5e1001161007157806374d5e100146101625780638ead6fe514610192578063b26d17f51461019c578063b3cdf2d9146101ce578063cf497fe0146101fe578063ed3c9d271461021a576100a9565b806302b8c8cd146100ae578063394baacc146100ca57806347d2c667146100fa57806354465fa81461012a5780635ae5577214610146575b600080fd5b6100c860048036038101906100c391906119ce565b61024c565b005b6100e460048036038101906100df9190611b41565b6103fe565b6040516100f19190611ba3565b60405180910390f35b610114600480360381019061010f9190611c1c565b610678565b6040516101219190611c77565b60405180910390f35b610144600480360381019061013f9190611c92565b61070c565b005b610160600480360381019061015b9190611c1c565b61097a565b005b61017c60048036038101906101779190611c92565b610e68565b6040516101899190611d36565b60405180910390f35b61019a610e88565b005b6101b660048036038101906101b19190611d7d565b610fe8565b6040516101c593929190611e51565b60405180910390f35b6101e860048036038101906101e39190611d7d565b6110ba565b6040516101f59190611e8f565b60405180910390f35b61021860048036038101906102139190611c92565b61129b565b005b610234600480360381019061022f9190611c92565b611567565b60405161024393929190612139565b60405180910390f35b600160028111156102605761025f611cbf565b5b81600281111561027357610272611cbf565b5b14806102a2575060028081111561028d5761028c611cbf565b5b8160028111156102a05761029f611cbf565b5b145b6102e1576040517f08c379a00000000000000000000000000000000000000000000000000000000081526004016102d8906121d1565b60405180910390fd5b600060028111156102f5576102f4611cbf565b5b600260003373ffffffffffffffffffffffffffffffffffffffff1673ffffffffffffffffffffffffffffffffffffffff16815260200190815260200160002060009054906101000a900460ff16600281111561035457610353611cbf565b5b14610394576040517f08c379a000000000000000000000000000000000000000000000000000000000815260040161038b9061223d565b60405180910390fd5b80600260003373ffffffffffffffffffffffffffffffffffffffff1673ffffffffffffffffffffffffffffffffffffffff16815260200190815260200160002060006101000a81548160ff021916908360028111156103f6576103f5611cbf565b5b021790555050565b60006001600281111561041457610413611cbf565b5b600260003373ffffffffffffffffffffffffffffffffffffffff1673ffffffffffffffffffffffffffffffffffffffff16815260200190815260200160002060009054906101000a900460ff16600281111561047357610472611cbf565b5b146104b3576040517f08c379a00000000000000000000000000000000000000000000000000000000081526004016104aa906122cf565b60405180910390fd5b600460008154809291906104c69061231e565b919050555060008233600454426001436104e09190612366565b406040516020016104f5959493929190612460565b60405160208183030381529060405280519060200120905060405180606001604052803373ffffffffffffffffffffffffffffffffffffffff1681526020018481526020014281525060008083815260200190815260200160002060008201518160000160006101000a81548173ffffffffffffffffffffffffffffffffffffffff021916908373ffffffffffffffffffffffffffffffffffffffff16021790555060208201518160010190816105ac91906126c7565b5060408201518160020155905050600160003373ffffffffffffffffffffffffffffffffffffffff1673ffffffffffffffffffffffffffffffffffffffff1681526020019081526020016000208190806001815401808255809150506001900390600052602060002001600090919091909150553373ffffffffffffffffffffffffffffffffffffffff16817f1ad98b7bbde19b32693aae55e47d1f2811e79675a15b0dd86b2afa4beb4aa630856040516106679190611e8f565b60405180910390a380915050919050565b6000600360008473ffffffffffffffffffffffffffffffffffffffff1673ffffffffffffffffffffffffffffffffffffffff16815260200190815260200160002060008373ffffffffffffffffffffffffffffffffffffffff1673ffffffffffffffffffffffffffffffffffffffff16815260200190815260200160002060009054906101000a900460ff16905092915050565b600160028111156107205761071f611cbf565b5b600260003373ffffffffffffffffffffffffffffffffffffffff1673ffffffffffffffffffffffffffffffffffffffff16815260200190815260200160002060009054906101000a900460ff16600281111561077f5761077e611cbf565b5b146107bf576040517f08c379a00000000000000000000000000000000000000000000000000000000081526004016107b6906122cf565b60405180910390fd5b600360003373ffffffffffffffffffffffffffffffffffffffff1673ffffffffffffffffffffffffffffffffffffffff16815260200190815260200160002060008273ffffffffffffffffffffffffffffffffffffffff1673ffffffffffffffffffffffffffffffffffffffff16815260200190815260200160002060009054906101000a900460ff16610888576040517f08c379a000000000000000000000000000000000000000000000000000000000815260040161087f906127e5565b60405180910390fd5b6000600360003373ffffffffffffffffffffffffffffffffffffffff1673ffffffffffffffffffffffffffffffffffffffff16815260200190815260200160002060008373ffffffffffffffffffffffffffffffffffffffff1673ffffffffffffffffffffffffffffffffffffffff16815260200190815260200160002060006101000a81548160ff0219169083151502179055508073ffffffffffffffffffffffffffffffffffffffff163373ffffffffffffffffffffffffffffffffffffffff167fb1e2657fc9e7630c5f68ad90582ef44db9d68db8e3a368e217f7e61a510a011c60405160405180910390a350565b60028081111561098d5761098c611cbf565b5b600260003373ffffffffffffffffffffffffffffffffffffffff1673ffffffffffffffffffffffffffffffffffffffff16815260200190815260200160002060009054906101000a900460ff1660028111156109ec576109eb611cbf565b5b14610a2c576040517f08c379a0000000000000000000000000000000000000000000000000000000008152600401610a2390612877565b60405180910390fd5b60016002811115610a4057610a3f611cbf565b5b600260008473ffffffffffffffffffffffffffffffffffffffff1673ffffffffffffffffffffffffffffffffffffffff16815260200190815260200160002060009054906101000a900460ff166002811115610a9f57610a9e611cbf565b5b14610adf576040517f08c379a0000000000000000000000000000000000000000000000000000000008152600401610ad6906128e3565b60405180910390fd5b600280811115610af257610af1611cbf565b5b600260008373ffffffffffffffffffffffffffffffffffffffff1673ffffffffffffffffffffffffffffffffffffffff16815260200190815260200160002060009054906101000a900460ff166002811115610b5157610b50611cbf565b5b14610b91576040517f08c379a0000000000000000000000000000000000000000000000000000000008152600401610b889061294f565b60405180910390fd5b3373ffffffffffffffffffffffffffffffffffffffff168173ffffffffffffffffffffffffffffffffffffffff1614158015610bfa5750600073ffffffffffffffffffffffffffffffffffffffff168173ffffffffffffffffffffffffffffffffffffffff1614155b610c39576040517f08c379a0000000000000000000000000000000000000000000000000000000008152600401610c30906129e1565b60405180910390fd5b600360008373ffffffffffffffffffffffffffffffffffffffff1673ffffffffffffffffffffffffffffffffffffffff16815260200190815260200160002060003373ffffffffffffffffffffffffffffffffffffffff1673ffffffffffffffffffffffffffffffffffffffff16815260200190815260200160002060009054906101000a900460ff1615610e64576000600360008473ffffffffffffffffffffffffffffffffffffffff1673ffffffffffffffffffffffffffffffffffffffff16815260200190815260200160002060003373ffffffffffffffffffffffffffffffffffffffff1673ffffffffffffffffffffffffffffffffffffffff16815260200190815260200160002060006101000a81548160ff0219169083151502179055506001600360008473ffffffffffffffffffffffffffffffffffffffff1673ffffffffffffffffffffffffffffffffffffffff16815260200190815260200160002060008373ffffffffffffffffffffffffffffffffffffffff1673ffffffffffffffffffffffffffffffffffffffff16815260200190815260200160002060006101000a81548160ff0219169083151502179055508073ffffffffffffffffffffffffffffffffffffffff163373ffffffffffffffffffffffffffffffffffffffff168373ffffffffffffffffffffffffffffffffffffffff167f955538324fa27f644096e5196fa8b8037c08de88c7ad66859bcb48d5b3fad26b60405160405180910390a45b5050565b60026020528060005260406000206000915054906101000a900460ff1681565b60006002811115610e9c57610e9b611cbf565b5b600260003373ffffffffffffffffffffffffffffffffffffffff1673ffffffffffffffffffffffffffffffffffffffff16815260200190815260200160002060009054906101000a900460ff166002811115610efb57610efa611cbf565b5b03610f3b576040517f08c379a0000000000000000000000000000000000000000000000000000000008152600401610f3290612a4d565b60405180910390fd5b6000600260003373ffffffffffffffffffffffffffffffffffffffff1673ffffffffffffffffffffffffffffffffffffffff16815260200190815260200160002060006101000a81548160ff02191690836002811115610f9e57610f9d611cbf565b5b02179055503373ffffffffffffffffffffffffffffffffffffffff167fcd202ebcd8f34e408e4a9a9a3a905abda497a135afe7ce2bd911e8084144451760405160405180910390a2565b60006020528060005260406000206000915090508060000160009054906101000a900473ffffffffffffffffffffffffffffffffffffffff1690806001018054611031906124ea565b80601f016020809104026020016040519081016040528092919081815260200182805461105d906124ea565b80156110aa5780601f1061107f576101008083540402835291602001916110aa565b820191906000526020600020905b81548152906001019060200180831161108d57829003601f168201915b5050505050908060020154905083565b6060600080600084815260200190815260200160002060000160009054906101000a900473ffffffffffffffffffffffffffffffffffffffff1690503373ffffffffffffffffffffffffffffffffffffffff168173ffffffffffffffffffffffffffffffffffffffff1614806111b65750600360008273ffffffffffffffffffffffffffffffffffffffff1673ffffffffffffffffffffffffffffffffffffffff16815260200190815260200160002060003373ffffffffffffffffffffffffffffffffffffffff1673ffffffffffffffffffffffffffffffffffffffff16815260200190815260200160002060009054906101000a900460ff165b6111f5576040517f08c379a00000000000000000000000000000000000000000000000000000000081526004016111ec90612ab9565b60405180910390fd5b6000808481526020019081526020016000206001018054611215906124ea565b80601f0160208091040260200160405190810160405280929190818152602001828054611241906124ea565b801561128e5780601f106112635761010080835404028352916020019161128e565b820191906000526020600020905b81548152906001019060200180831161127157829003601f168201915b5050505050915050919050565b600160028111156112af576112ae611cbf565b5b600260003373ffffffffffffffffffffffffffffffffffffffff1673ffffffffffffffffffffffffffffffffffffffff16815260200190815260200160002060009054906101000a900460ff16600281111561130e5761130d611cbf565b5b1461134e576040517f08c379a0000000000000000000000000000000000000000000000000000000008152600401611345906122cf565b60405180910390fd5b6000600260008373ffffffffffffffffffffffffffffffffffffffff1673ffffffffffffffffffffffffffffffffffffffff16815260200190815260200160002060009054906101000a900460ff1690506002808111156113b2576113b1611cbf565b5b8160028111156113c5576113c4611cbf565b5b14611405576040517f08c379a00000000000000000000000000000000000000000000000000000000081526004016113fc9061294f565b60405180910390fd5b600073ffffffffffffffffffffffffffffffffffffffff168273ffffffffffffffffffffffffffffffffffffffff1603611474576040517f08c379a000000000000000000000000000000000000000000000000000000000815260040161146b90612b25565b60405180910390fd5b6001600360003373ffffffffffffffffffffffffffffffffffffffff1673ffffffffffffffffffffffffffffffffffffffff16815260200190815260200160002060008473ffffffffffffffffffffffffffffffffffffffff1673ffffffffffffffffffffffffffffffffffffffff16815260200190815260200160002060006101000a81548160ff0219169083151502179055508173ffffffffffffffffffffffffffffffffffffffff163373ffffffffffffffffffffffffffffffffffffffff167f22744b1ce520438a13ebd0ca9bcce65c66440563957858f38c1f93a1256fb06d60405160405180910390a35050565b60608060603373ffffffffffffffffffffffffffffffffffffffff168473ffffffffffffffffffffffffffffffffffffffff16148061162c5750600360008573ffffffffffffffffffffffffffffffffffffffff1673ffffffffffffffffffffffffffffffffffffffff16815260200190815260200160002060003373ffffffffffffffffffffffffffffffffffffffff1673ffffffffffffffffffffffffffffffffffffffff16815260200190815260200160002060009054906101000a900460ff165b61166b576040517f08c379a000000000000000000000000000000000000000000000000000000000815260040161166290612b91565b60405180910390fd5b6000600160008673ffffffffffffffffffffffffffffffffffffffff1673ffffffffffffffffffffffffffffffffffffffff1681526020019081526020016000208054905090508067ffffffffffffffff8111156116cc576116cb611a16565b5b6040519080825280602002602001820160405280156116fa5781602001602082028036833780820191505090505b5093508067ffffffffffffffff81111561171757611716611a16565b5b6040519080825280602002602001820160405280156117455781602001602082028036833780820191505090505b5092508067ffffffffffffffff81111561176257611761611a16565b5b60405190808252806020026020018201604052801561179557816020015b60608152602001906001900390816117805790505b50915060005b8181101561198c576000600160008873ffffffffffffffffffffffffffffffffffffffff1673ffffffffffffffffffffffffffffffffffffffff16815260200190815260200160002082815481106117f6576117f5612bb1565b5b9060005260206000200154905060008060008381526020019081526020016000206040518060600160405290816000820160009054906101000a900473ffffffffffffffffffffffffffffffffffffffff1673ffffffffffffffffffffffffffffffffffffffff1673ffffffffffffffffffffffffffffffffffffffff168152602001600182018054611888906124ea565b80601f01602080910402602001604051908101604052809291908181526020018280546118b4906124ea565b80156119015780601f106118d657610100808354040283529160200191611901565b820191906000526020600020905b8154815290600101906020018083116118e457829003601f168201915b5050505050815260200160028201548152505090508187848151811061192a57611929612bb1565b5b602002602001018181525050806040015186848151811061194e5761194d612bb1565b5b602002602001018181525050806020015185848151811061197257611971612bb1565b5b60200260200101819052505050808060010191505061179b565b50509193909250565b6000604051905090565b600080fd5b600080fd5b600381106119b657600080fd5b50565b6000813590506119c8816119a9565b92915050565b6000602082840312156119e4576119e361199f565b5b60006119f2848285016119b9565b91505092915050565b600080fd5b600080fd5b6000601f19601f8301169050919050565b7f4e487b7100000000000000000000000000000000000000000000000000000000600052604160045260246000fd5b611a4e82611a05565b810181811067ffffffffffffffff82111715611a6d57611a6c611a16565b5b80604052505050565b6000611a80611995565b9050611a8c8282611a45565b919050565b600067ffffffffffffffff821115611aac57611aab611a16565b5b611ab582611a05565b9050602081019050919050565b82818337600083830152505050565b6000611ae4611adf84611a91565b611a76565b905082815260208101848484011115611b0057611aff611a00565b5b611b0b848285611ac2565b509392505050565b600082601f830112611b2857611b276119fb565b5b8135611b38848260208601611ad1565b91505092915050565b600060208284031215611b5757611b5661199f565b5b600082013567ffffffffffffffff811115611b7557611b746119a4565b5b611b8184828501611b13565b91505092915050565b6000819050919050565b611b9d81611b8a565b82525050565b6000602082019050611bb86000830184611b94565b92915050565b600073ffffffffffffffffffffffffffffffffffffffff82169050919050565b6000611be982611bbe565b9050919050565b611bf981611bde565b8114611c0457600080fd5b50565b600081359050611c1681611bf0565b92915050565b60008060408385031215611c3357611c3261199f565b5b6000611c4185828601611c07565b9250506020611c5285828601611c07565b9150509250929050565b60008115159050919050565b611c7181611c5c565b82525050565b6000602082019050611c8c6000830184611c68565b92915050565b600060208284031215611ca857611ca761199f565b5b6000611cb684828501611c07565b91505092915050565b7f4e487b7100000000000000000000000000000000000000000000000000000000600052602160045260246000fd5b60038110611cff57611cfe611cbf565b5b50565b6000819050611d1082611cee565b919050565b6000611d2082611d02565b9050919050565b611d3081611d15565b82525050565b6000602082019050611d4b6000830184611d27565b92915050565b611d5a81611b8a565b8114611d6557600080fd5b50565b600081359050611d7781611d51565b92915050565b600060208284031215611d9357611d9261199f565b5b6000611da184828501611d68565b91505092915050565b611db381611bde565b82525050565b600081519050919050565b600082825260208201905092915050565b60005b83811015611df3578082015181840152602081019050611dd8565b60008484015250505050565b6000611e0a82611db9565b611e148185611dc4565b9350611e24818560208601611dd5565b611e2d81611a05565b840191505092915050565b6000819050919050565b611e4b81611e38565b82525050565b6000606082019050611e666000830186611daa565b8181036020830152611e788185611dff565b9050611e876040830184611e42565b949350505050565b60006020820190508181036000830152611ea98184611dff565b905092915050565b600081519050919050565b600082825260208201905092915050565b6000819050602082019050919050565b611ee681611b8a565b82525050565b6000611ef88383611edd565b60208301905092915050565b6000602082019050919050565b6000611f1c82611eb1565b611f268185611ebc565b9350611f3183611ecd565b8060005b83811015611f62578151611f498882611eec565b9750611f5483611f04565b925050600181019050611f35565b5085935050505092915050565b600081519050919050565b600082825260208201905092915050565b6000819050602082019050919050565b611fa481611e38565b82525050565b6000611fb68383611f9b565b60208301905092915050565b6000602082019050919050565b6000611fda82611f6f565b611fe48185611f7a565b9350611fef83611f8b565b8060005b838110156120205781516120078882611faa565b975061201283611fc2565b925050600181019050611ff3565b5085935050505092915050565b600081519050919050565b600082825260208201905092915050565b6000819050602082019050919050565b600082825260208201905092915050565b600061207582611db9565b61207f8185612059565b935061208f818560208601611dd5565b61209881611a05565b840191505092915050565b60006120af838361206a565b905092915050565b6000602082019050919050565b60006120cf8261202d565b6120d98185612038565b9350836020820285016120eb85612049565b8060005b85811015612127578484038952815161210885826120a3565b9450612113836120b7565b925060208a019950506001810190506120ef565b50829750879550505050505092915050565b600060608201905081810360008301526121538186611f11565b905081810360208301526121678185611fcf565b9050818103604083015261217b81846120c4565b9050949350505050565b7f526f6c65206d7573742062652050617469656e74206f7220446f63746f720000600082015250565b60006121bb601e83611dc4565b91506121c682612185565b602082019050919050565b600060208201905081810360008301526121ea816121ae565b9050919050565b7f5573657220616c72656164792072656769737465726564000000000000000000600082015250565b6000612227601783611dc4565b9150612232826121f1565b602082019050919050565b600060208201905081810360008301526122568161221a565b9050919050565b7f4f6e6c7920612070617469656e742063616e20706572666f726d20746869732060008201527f616374696f6e0000000000000000000000000000000000000000000000000000602082015250565b60006122b9602683611dc4565b91506122c48261225d565b604082019050919050565b600060208201905081810360008301526122e8816122ac565b9050919050565b7f4e487b7100000000000000000000000000000000000000000000000000000000600052601160045260246000fd5b600061232982611e38565b91507fffffffffffffffffffffffffffffffffffffffffffffffffffffffffffffffff820361235b5761235a6122ef565b5b600182019050919050565b600061237182611e38565b915061237c83611e38565b9250828203905081811115612394576123936122ef565b5b92915050565b600081905092915050565b60006123b082611db9565b6123ba818561239a565b93506123ca818560208601611dd5565b80840191505092915050565b60008160601b9050919050565b60006123ee826123d6565b9050919050565b6000612400826123e3565b9050919050565b61241861241382611bde565b6123f5565b82525050565b6000819050919050565b61243961243482611e38565b61241e565b82525050565b6000819050919050565b61245a61245582611b8a565b61243f565b82525050565b600061246c82886123a5565b91506124788287612407565b6014820191506124888286612428565b6020820191506124988285612428565b6020820191506124a88284612449565b6020820191508190509695505050505050565b7f4e487b7100000000000000000000000000000000000000000000000000000000600052602260045260246000fd5b6000600282049050600182168061250257607f821691505b602082108103612515576125146124bb565b5b50919050565b60008190508160005260206000209050919050565b60006020601f8301049050919050565b600082821b905092915050565b60006008830261257d7fffffffffffffffffffffffffffffffffffffffffffffffffffffffffffffffff82612540565b6125878683612540565b95508019841693508086168417925050509392505050565b6000819050919050565b60006125c46125bf6125ba84611e38565b61259f565b611e38565b9050919050565b6000819050919050565b6125de836125a9565b6125f26125ea826125cb565b84845461254d565b825550505050565b600090565b6126076125fa565b6126128184846125d5565b505050565b5b818110156126365761262b6000826125ff565b600181019050612618565b5050565b601f82111561267b5761264c8161251b565b61265584612530565b81016020851015612664578190505b61267861267085612530565b830182612617565b50505b505050565b600082821c905092915050565b600061269e60001984600802612680565b1980831691505092915050565b60006126b7838361268d565b9150826002028217905092915050565b6126d082611db9565b67ffffffffffffffff8111156126e9576126e8611a16565b5b6126f382546124ea565b6126fe82828561263a565b600060209050601f831160018114612731576000841561271f578287015190505b61272985826126ab565b865550612791565b601f19841661273f8661251b565b60005b8281101561276757848901518255600182019150602085019450602081019050612742565b868310156127845784890151612780601f89168261268d565b8355505b6001600288020188555050505b505050505050565b7f446f63746f7220646f6573206e6f7420686176652066756c6c20616363657373600082015250565b60006127cf602083611dc4565b91506127da82612799565b602082019050919050565b600060208201905081810360008301526127fe816127c2565b9050919050565b7f4f6e6c79206120646f63746f722063616e20706572666f726d2074686973206160008201527f6374696f6e000000000000000000000000000000000000000000000000000000602082015250565b6000612861602583611dc4565b915061286c82612805565b604082019050919050565b6000602082019050818103600083015261289081612854565b9050919050565b7f50617469656e74206e6f7420666f756e64000000000000000000000000000000600082015250565b60006128cd601183611dc4565b91506128d882612897565b602082019050919050565b600060208201905081810360008301526128fc816128c0565b9050919050565b7f526563697069656e74206d757374206265206120646f63746f72000000000000600082015250565b6000612939601a83611dc4565b915061294482612903565b602082019050919050565b600060208201905081810360008301526129688161292c565b9050919050565b7f43616e6e6f74207472616e736665722061636365737320746f20796f7572736560008201527f6c66206f7220696e76616c696420646f63746f72206164647265737300000000602082015250565b60006129cb603c83611dc4565b91506129d68261296f565b604082019050919050565b600060208201905081810360008301526129fa816129be565b9050919050565b7f55736572206973206e6f74207265676973746572656400000000000000000000600082015250565b6000612a37601683611dc4565b9150612a4282612a01565b602082019050919050565b60006020820190508181036000830152612a6681612a2a565b9050919050565b7f4163636573732064656e69656400000000000000000000000000000000000000600082015250565b6000612aa3600d83611dc4565b9150612aae82612a6d565b602082019050919050565b60006020820190508181036000830152612ad281612a96565b9050919050565b7f496e76616c696420646f63746f72206164647265737300000000000000000000600082015250565b6000612b0f601683611dc4565b9150612b1a82612ad9565b602082019050919050565b60006020820190508181036000830152612b3e81612b02565b9050919050565b7f41636365737320746f2070617469656e7420686973746f72792064656e696564600082015250565b6000612b7b602083611dc4565b9150612b8682612b45565b602082019050919050565b60006020820190508181036000830152612baa81612b6e565b9050919050565b7f4e487b7100000000000000000000000000000000000000000000000000000000600052603260045260246000fdfea2646970667358221220de3a06e5efa5e9bee2d93bf1ea899e5ecb00e05c8b90ee082f334519f0e1180064736f6c634300081c0033",
  "linkReferences": {},
  "deployedLinkReferences": {}
}